:020000040800F2
:10000000000003206D7C0008A11E0008A91E000846
:10001000B11E0008B91E0008C11E00080000000043
:10002000000000000000000000000000C91E0008E1
:10003000D71E000800000000E51E0008F31E00089F
:10004000BD7C0008BD7C0008BD7C0008BD7C0008AC
:10005000BD7C0008BD7C0008BD7C0008BD7C00089C
:10006000BD7C0008BD7C0008BD7C0008BD7C00088C
:10007000BD7C0008BD7C0008BD7C0008BD7C00087C
:10008000BD7C0008BD7C0008BD7C0008BD7C00086C
:10009000BD7C0008BD7C0008BD7C0008BD7C00085C
:1000A000BD7C0008BD7C0008BD7C0008BD7C00084C
:1000B000BD7C0008BD7C0008BD7C0008BD7C00083C
:1000C000BD7C0008BD7C0008BD7C0008BD7C00082C
:1000D000BD7C0008BD7C0008BD7C0008BD7C00081C
:1000E000BD7C0008BD7C0008BD7C0008BD7C00080C
:1000F000BD7C0008BD7C0008BD7C0008BD7C0008FC
:10010000BD7C0008BD7C0008BD7C0008BD7C0008EB
:10011000BD7C0008011F0008BD7C0008BD7C0008F4
:10012000BD7C0008BD7C0008BD7C0008BD7C0008CB
:10013000BD7C0008BD7C0008BD7C0008BD7C0008BB
:10014000BD7C0008BD7C0008BD7C0008BD7C0008AB
:10015000BD7C0008BD7C0008BD7C0008BD7C00089B
:10016000BD7C0008BD7C0008BD7C0008BD7C00088B
:10017000BD7C0008BD7C0008BD7C000800000000BC
:10018000BD7C0008BD7C0008BD7C0008BD7C00086B
:10019000BD7C0008BD7C0008BD7C0008BD7C00085B
:0C01A000BD7C0008BD7C0008151F000895
:1001AC0001207047F0B503AF4DF804BD2DED028B67
:1001BC0000244FF00136B7EE008A00252046294670
:1001CC0007F036FDC0B22146B0EE480A00FB06F23D
:1001DC00284607F03FFC0135322DEFD1013407F0F2
:1001EC0097FC322CE9D1BDEC028B5DF804BBF0BD61
:1001FC006FF47F0002E04FF0FF10FFE780B56F4611
:10020C0007F0DCFC07F084FC002002F07DF80020F5
:10021C0080BDFEDE80B56F4688B0FFF7FAFF00F0B8
:10022C0001B800BFD0B502AF00F0B0F80148606073
:10023C002046D0BD010000800160704700F000B87E
:10024C00D0B502AF00F0A2F84FF0FF30606020464E
:10025C00D0BD7047FEDE00F000B850B141680131EE
:10026C0007D0011D51E8002F013241E80023002B7B
:10027C00F8D1704780B56F4600F00AF880BD07E0F2
:10028C007047704780B56F4600F002F880BDFFE7FD
:10029C00D0B502AF60B14268013209D0002908D450
:1002AC00021D52E8003F0B4442E80034002CF8D108
:1002BC00D0BDFEDEFFF7D1BF80B56F4600F003F86E
:1002CC0000F0010080BD00B158E00020704780B5FF
:1002DC006F4600F003F800F0010080BD4EE000F026
:1002EC0000B8B0B502AF0D46044600F008F8A842BD
:1002FC0003D000680028FAD100242046B0BD006865
:10030C00704700F000B8D0B502AF04460068BFF3E8
:10031C005F8F002816D4012054E8003F5BB944E8F5
:10032C000003002BF8D1104688474FF0FF30BFF385
:10033C005F8F2060D0BDBFF32F8F2068BFF35F8F1E
:10034C000028FAD5D0BD704770477047704780B50C
:10035C006F4600F000F8FEDE00F000B8002906D46D
:10036C0008BF704780B56F4607F0D0FC80BDFEDE3D
:10037C0080B56F46FFF7EBFFFFF76FBF4068BFF329
:10038C005F8F0138B0FA80F0400970470C46014687
:10039C00204651E7034613F8012B002AFBD1181A0B
:1003AC000138704770B4840746D04C1E002941D0E8
:1003BC00D5B2034602E0611EE4B30C4603F8015BC0
:1003CC009907F8D1032C2ED9D5B245EA05250F2C67
:1003DC0045EA054519D9264603F11001103E0F2EAA
:1003EC0041F8105C41F80C5C41F8085C41F8045C85
:1003FC0001F11001F2D8A4F1100121F00F0104F069
:10040C000F041031032C0B440DD91E462146043920
:10041C00032946F8045BFAD8211F21F003010431AB
:10042C000B4404F003042CB1D2B21C4403F8012B8E
:10043C00A342FBD170BC70470C460346C2E70000D8
:10044C0053B94AB9002908BF00281CBF4FF0FF312F
:10045C004FF0FF3000F00CB8ADF1080C6DE904CE94
:10046C0007F066FCDDF804E0DDE9022304B0704718
:10047C00704700BF0348044B834202D0034B03B1C7
:10048C00184770476000002060000020000000004A
:10049C000548064B1B1AD90F01EBA301491002D0DA
:1004AC00034B03B118477047600000206000002028
:1004BC000000000010B5064C237843B9FFF7DAFFB3
:1004CC00044B13B10448AFF300800123237010BD1B
:1004DC006000002000000000F87F000808B5054B04
:1004EC001BB105490548AFF30080BDE80840FFF794
:1004FC00CFBF00BF0000000064000020F87F0008A0
:10050C0080B588B000AF3B1D00221A605A609A601B
:10051C00DA601A615A619A611E4B1F4A1A601D4BB0
:10052C0001225A601B4B00229A601A4B0822DA6097
:10053C00184B10221A61174B40225A61154B80221E
:10054C009A61144B0022DA61124B00221A62114B91
:10055C0000225A620F4B00229A6210237B601023F8
:10056C00BB601023FB6010233B6110237B611023C5
:10057C00BB611023FB613B1D1946064806F0ECFEDF
:10058C000346002B01D001F051FB00BF2037BD46C4
:10059C0080BD00BF7C000020400100A080B586B06B
:1005AC0000AF3B1D00221A605A609A60DA601A6133
:1005BC003B4B1B68002B6FD1394B01221A60002377
:1005CC003B60384B9B6B374A43F001039363354BCD
:1005DC009B6B03F001033B603B684FF63F037B6072
:1005EC000223BB600023FB6003233B610C237B6174
:1005FC003B1D19462C4806F041FF01237B6002236A
:10060C00BB600023FB6003233B610C237B613B1D20
:10061C001946264806F032FF48F237137B60022356
:10062C00BB600023FB6003233B610C237B613B1D00
:10063C0019461F4806F022FF4FF683737B60022396
:10064C00BB600023FB6003233B610C237B613B1DE0
:10065C001946184806F012FF4CF203737B60022314
:10066C00BB600023FB6003233B610C237B613B1DC0
:10067C001946114806F002FF60237B600223BB6021
:10068C000023FB6003233B610C237B613B1D19465C
:10069C000A4806F0F3FE00E000BF1837BD4680BDE7
:1006AC00B000002000380240001402400008024054
:1006BC000018024000100240000C024000040240EE
:1006CC0080B582B000AF7860FFF768FF00BF0837D5
:1006DC00BD4680BD80B500AF154B164A1A60144B51
:1006EC0000225A60124B00229A60114B0022DA60F1
:1006FC000F4B00221A610E4B00225A610C4B4FF427
:10070C0000729A610A4B00221A62094B00225A624B
:10071C00074B00229A62064B0A22DA62044802F066
:10072C0055FC0346002B01D001F080FA00BF80BDC0
:10073C00B40000200030014080B58AB000AF786072
:10074C0007F1140300221A605A609A60DA601A6189
:10075C007B681B68284A934249D100233B61274B95
:10076C005B6C264A43F480535364244B5B6C03F458
:10077C0080533B613B690023FB60204B1B6B1F4A82
:10078C0043F0010313631D4B1B6B03F00103FB6070
:10079C00FB680023BB60194B1B6B184A43F0020328
:1007AC001363164B1B6B03F00203BB60BB68202367
:1007BC007B610223BB610023FB6103233B620523A6
:1007CC007B6207F1140319460D4806F057FE1023FF
:1007DC007B610223BB610023FB6103233B62052386
:1007EC007B6207F114031946064806F047FE00BF6A
:1007FC002837BD4680BD00BF0030014000380240A4
:10080C00000002400004024080B582B000AF786066
:10081C007B681B680A4A93420DD10A4B5B6C094AF0
:10082C0023F4805353642021074806F0D3FF102192
:10083C00064806F0CFFF00BF0837BD4680BD00BF9D
:10084C000030014000380240000002400004024029
:10085C0080B58EB000AF07F1240300221A605A60F5
:10086C009A60DA601A6100233B629B4B1B6B9A4ABD
:10087C0043F004031363984B1B6B03F004033B62BC
:10088C003B6A0023FB61944B1B6B934A43F02003A0
:10089C001363914B1B6B03F02003FB61FB6900237B
:1008AC00BB618D4B1B6B8C4A43F0800313638A4BEB
:1008BC001B6B03F08003BB61BB6900237B61864B20
:1008CC001B6B854A43F001031363834B1B6B03F0D3
:1008DC0001037B617B6900233B617F4B1B6B7E4A71
:1008EC0043F0020313637C4B1B6B03F002033B616D
:1008FC003B690023FB60784B1B6B774A43F040034A
:10090C001363754B1B6B03F04003FB60FB68002308
:10091C00BB60714B1B6B704A43F0100313636E4B3F
:10092C001B6B03F01003BB60BB6800237B606A4B3E
:10093C001B6B694A43F008031363674B1B6B03F093
:10094C0008037B607B6800221621644807F04EF890
:10095C0000228021624807F049F800224FF44051F0
:10096C00604807F043F800224FF4C0415E4807F09E
:10097C003DF84FF460737B620223BB620023FB6281
:10098C0000233B6305237B6307F124031946574877
:10099C0006F074FD16237B620123BB620023FB620D
:1009AC0000233B6307F1240319464C4806F066FD0F
:1009BC0048F207037B624FF49013BB620023FB6287
:1009CC0007F124031946464806F058FD80237B6244
:1009DC000123BB620023FB6200233B6307F124036A
:1009EC0019463F4806F04AFD20237B624FF49013D2
:1009FC00BB620023FB6207F124031946374806F05B
:100A0C003DFD04237B620023BB620023FB6207F1E4
:100A1C0024031946364806F031FD4FF450437B62EF
:100A2C000223BB620023FB6200233B630C237B632A
:100A3C0007F1240319462E4806F020FD4FF400530D
:100A4C007B620023BB620023FB6207F1240319467F
:100A5C00274806F013FD4FF400637B620023BB6252
:100A6C000023FB6207F1240319461E4806F006FD1D
:100A7C004FF440537B620123BB620023FB620023D3
:100A8C003B6307F124031946164806F0F7FC4FF4B4
:100A9C00C0637B620223BB620023FB6203233B63C4
:100AAC0007237B6307F1240319460D4806F0E6FC87
:100ABC004FF4C0437B620123BB620023FB62002323
:100ACC003B6307F124031946074806F0D7FC00BF27
:100ADC003837BD4680BD00BF0038024000080240D8
:100AEC0000000240000C02400018024000140240BA
:100AFC000004024080B584B000AF78600B46FB70F8
:100B0C007B689B68FB60FB685A1C7B685B689A423D
:100B1C000ED87B681A68FB681344FA781A70FB6865
:100B2C005A1C7B689A607B68DB685A1C7B68DA60AD
:100B3C007B689A687B685B689A4215D17B681869F8
:100B4C007B6819687B689B681A4600F0C1FC0246FA
:100B5C007B689B689A4204D07B684FF0FF32DA6066
:100B6C0002E07B6800229A6000BF1037BD4680BD52
:100B7C0080B58AB000AFF860B9607A603B60BB6842
:100B8C003B6201237B620123FB6107E03A6A7B68CD
:100B9C00B2FBF3F33B62FB690133FB613A6A7B689E
:100BAC009A42F3D23A68FB699A4201D93B68FB61DD
:100BBC007B6B03F00103002B25D13B6B002B22D068
:100BCC007B6B03F00203002B05D03B68002B02D19A
:100BDC003023FB7601E02023FB760BE03B6B013BE3
:100BEC003B63FB7E1946F868FFF784FFFB68DB6804
:100BFC00002B07DB3B6B002B05D0FA693B6B9A4251
:100C0C00ECD300E000BFFB68DB68002B55DB3B68D6
:100C1C00012B03D93B68013B3B6009E0BA687B6A56
:100C2C00B2FBF3F37B617A697B689A4200D205E0F0
:100C3C007B6A7A6802FB03F37B62E8E7BA687B6A3B
:100C4C00B2FBF3F37B617B697A6A02FB03F3BA684C
:100C5C00D31ABB601B4A7B6913441B781946F8688E
:100C6C00FFF748FFFB68DB68002B08DB7A6A7B68C0
:100C7C00B2FBF3F37B627B6A002BDFD100E000BF99
:100C8C007B6B03F00103002B17D03B6B002B14D0B4
:100C9C000AE03B6B013B3B632021F868FFF72AFF1E
:100CAC00FB68DB68002B07DB3B6B002B05D0FA697C
:100CBC003B6B9A42EDD300E000BF00BF2837BD4626
:100CCC0080BD00BF7C8C000880B588B002AFF86096
:100CDC00B9607A603B60BB68002BB8BF5B423B617C
:100CEC0001237B6107E07B683A6992FBF3F33B617C
:100CFC007B6901337B617B683A699A42F3DA3A6823
:100D0C007B699A4201D93B687B613B6A002B0AD014
:100D1C00BB68002B04DB7B6A03F00403002B02D0BE
:100D2C003B6A013B3B627B6A03F00203002B02D05F
:100D3C003B68002B1CD07B6A03F00103002B17D1FE
:100D4C003B6A002B14D00AE03B6A013B3B6220213A
:100D5C00F868FFF7CFFEFB68DB68002B07DB3B6A0C
:100D6C00002B05D07A693B6A9A42EDD300E000BFB4
:100D7C00FB68DB68002B4ADBBB68002B07DABB681F
:100D8C005B42BB602D21F868FFF7B4FE08E07B6A7C
:100D9C0003F00403002B03D02B21F868FFF7AAFE05
:100DAC00FB68DB68002B32DB7B6A03F00203002B51
:100DBC001FD07B6A03F00103002B1AD13B68002B78
:100DCC0017D13B6A002B14D00AE03B6A013B3B6213
:100DDC003021F868FFF78EFEFB68DB68002B07DB21
:100DEC003B6A002B05D07A693B6A9A42EDD300E04E
:100DFC0000BFFB68DB68002B09DBB9687B6A0193D9
:100E0C003B6A00933B687A68F868FFF7B1FE00BF55
:100E1C001837BD4680BD000080B5A2B002AFF860A7
:100E2C00B9607A6007F110033B6540237B650023B2
:100E3C00BB65FB683B660023FB65BB681B7887F8CA
:100E4C007F30BB680133BB6097F87F30002B00F01C
:100E5C009F8197F87F30252B40F08D8100233B67D5
:100E6C000123BB67BB681B7887F87F3097F87F300E
:100E7C00233B0D2B3ED801A252F823F0F10E0008B3
:100E8C00010F0008010F0008010F0008010F0008F6
:100E9C00010F0008010F0008010F0008E10E000807
:100EAC00010F0008C10E0008010F0008010F000817
:100EBC00D10E00083B6F43F001033B67BB68013365
:100ECC00BB601AE03B6F43F002033B67BB68013326
:100EDC00BB6012E03B6F43F004033B67BB6801331C
:100EEC00BB600AE03B6F43F008033B67BB68013310
:100EFC00BB6002E00023BB6700BFBB6F002BB1D10E
:100F0C000023FB66BB681B7887F87F3097F87F302F
:100F1C002F2B12D997F87F30392B0ED8BB680133A1
:100F2C00BB60FA6E13469B0013445B001A4697F89D
:100F3C007F301344303BFB66E4E700237B67BB68E0
:100F4C001B7887F87F3097F87F302E2B1DD1BB682C
:100F5C000133BB60BB681B7887F87F3097F87F3014
:100F6C002F2B12D997F87F30392B0ED8BB68013351
:100F7C00BB607A6F13469B0013445B001A4697F8CC
:100F8C007F301344303B7B67E4E7BB681B7887F802
:100F9C007F3097F87F306C2B03D097F87F30682B1D
:100FAC0007D1BB680133BB60BB681B7887F87F3007
:100FBC00EFE797F87F30252B00F0D180252BC0F27E
:100FCC00D580782B00F3D280582BC0F2CF80583BC1
:100FDC00202B00F2CB8001A252F823F0DF10000886
:100FEC0079110008791100087911000879110008AD
:100FFC00791100087911000879110008791100089D
:10100C0079110008791100086D1000089310000880
:10101C00791100087911000879110008791100087C
:10102C00791100087911000879110008791100086C
:10103C007911000879110008791100084511000890
:10104C0079110008791100080511000879110008C0
:10105C00B91000087911000879110008DF10000898
:10106C007B681B68191D7A6811601B68BB67BB6FB6
:10107C0087F8673097F8672007F150031146184638
:10108C00FFF738FD73E07B681B68191D7A681160E7
:10109C001B68BB6707F150003B6F0193FB6E00931D
:1010AC007B6F0A22B96FFFF70FFE60E07B681B684D
:1010BC00191D7A6811601B68BB67B96F07F1500086
:1010CC003B6F0193FB6E00937B6F0A22FFF750FD81
:1010DC004DE07B681B68191D7A6811601B68BB6743
:1010EC00B96F07F150003B6F0193FB6E00937B6F60
:1010FC001022FFF73DFD3AE07B681B68191D7A68EA
:10110C0011601B68BB66BB6E1B7887F87F30BB6EAB
:10111C000133BB6697F87F30002B0BD097F87F20FC
:10112C0007F1500311461846FFF7E4FCFB6D002B4A
:10113C00E9DA1CE000BF1AE07B681B68191D7A68AD
:10114C0011601B68BB67B96F07F150000023019356
:10115C000823009308231022FFF70AFD07E007F18C
:10116C00500325211846FFF7C5FC00E000BFBB6803
:10117C000133BB6007E097F87F2007F1500311465D
:10118C001846FFF7B7FCFB6D002BBFF656AE00E020
:10119C0000BFFB6D002B0DDDBB6D002B06D0BA6DB7
:1011AC0007F110031946F86800F092F9FB6DBA6D5F
:1011BC001344FB65FB6D18468037BD4680BD00BFF0
:1011CC000EB480B585B000AF786007F12003BB602A
:1011DC0007F108031A46F9697868FFF71DFEF860F5
:1011EC00FB6818461437BD46BDE8804003B0704715
:1011FC0080B483B000AF254B3B603B6803221A617F
:10120C003B6803225A613B68214A9A613B68214A38
:10121C00DA613B684FF480621A623B6800229A6282
:10122C003B6800225A623B680022DA623B68184A2B
:10123C001A663B68184A5A663B6810229A663B68E5
:10124C0000221A673B680022DA663B6800225A6764
:10125C00BFF35F8F00237B600CE07B68C3F10F034F
:10126C000E4AD15C3A687B6813440A461A707B6854
:10127C0001337B607B680F2BEFD9BFF35F8F00BF0F
:10128C000C37BD465DF8047B704700BF0C01002095
:10129C0010800008B4010020B40500208C8C0008DC
:1012AC0080B58AB000AFF860B9607A6000233B6209
:1012BC00FB68DB68FB61FB681B69BB61BA69FB6996
:1012CC009A4205D9BA69FB69D31A013B7B6207E0E4
:1012DC00FB689A68B969FB69CB1A1344013B7B62C2
:1012EC00FB689A68FB69D31A7A6A934228BF134643
:1012FC007B627A6A7B68934228BF13467B62FB68E9
:10130C005A68FB6913447B617A6AB968786906F09C
:10131C0000FD3A6A7B6A13443B62BA687B6A1344E9
:10132C00BB607A687B6AD31A7B60FA697B6A134468
:10133C00FB61FB689B68FA699A4201D10023FB614F
:10134C00BFF35F8FFB68FA69DA607B68002BB2D160
:10135C003B6A18462837BD4680BD80B588B000AFC3
:10136C00F860B9607A60FB68DB68FB61FB689A68BF
:10137C00FB69D31ABB61BA697B689A4211D9FB68C5
:10138C005A68FB6913443B617A68B968386906F09E
:10139C00C0FCBFF35F8FFA697B681A44FB68DA60A4
:1013AC001FE0BB697B61FB685A68FB6913443B61B6
:1013BC007A69B968386906F0ACFC7A68BB69D31AEB
:1013CC007B61FB685B683B61BA68BB6913447A69F3
:1013DC001946386906F09DFCBFF35F8FFB687A698C
:1013EC00DA6000BF2037BD4680BD80B487B000AF47
:1013FC0078607B681B693B617B68DB68FB603A69E2
:10140C00FB689A4208D87B689A68FB68D21A3B69D9
:10141C001344013B7B6104E03A69FB68D31A013B3E
:10142C007B617B6918461C37BD465DF8047B7047B1
:10143C0080B588B000AFF860B9607A60BB68BB61FA
:10144C00FB685A1C13465B001344DB001F4A134411
:10145C007B617B695B69022B29D0022B2ED8002B78
:10146C0002D0012B13D029E07869FFF7BEFF386159
:10147C003A697B689A4202D20023FB6121E07B68C7
:10148C00FB617A68B9697869FFF767FF19E07869D9
:10149C00FFF7ABFF38617A683B69934228BF13466C
:1014AC00FB61FA69B9697869FFF757FF09E07A6857
:1014BC00B9697869FFF7F4FEF86102E00023FB617B
:1014CC0000BFFB6918462037BD4680BD0C010020CB
:1014DC0080B588B000AFF860B9607A600E4BFB61E4
:1014EC00FB691B78DBB2002B01D1FFF781FEEFF318
:1014FC0011834FF0200181F31188BB617A68B968C0
:10150C00F868FFF795FF7861BB6983F311887B69F5
:10151C0018462037BD4680BD0C01002080B584B034
:10152C0000AF786039603868FEF734FFF860FA680D
:10153C0039687868FFF7CCFF034618461037BD466C
:10154C0080BD000080B59AB000AF07F1340334229F
:10155C000021184606F0ADFB3B463422002118460C
:10156C0006F0A7FB4E4B4F4A1A604D4B00225A60B7
:10157C004B4B00229A604A4B0022DA60484B002207
:10158C001A61474B07225A61454B03229A61444B1F
:10159C000E22DA61424B05221A62414B40F28E2236
:1015AC005A623F4B40F2E5129A623D4B4FF4257262
:1015BC00DA623B4B40F2E7121A63394B002283F894
:1015CC003420374B002283F83520354B002283F82A
:1015DC003620334804F042FC0346002B01D000F0C7
:1015EC0025FB00237B630023BB630023FB630023E9
:1015FC003B6400237B640023BB640023FB644FF437
:10160C0080633B6505237B650023BB650023FB657D
:10161C0000233B66002387F86430002387F865308D
:10162C00002387F8663007F13403002219461C4862
:10163C0004F0E4FC0346002B01D000F0F7FA002381
:10164C003B6000237B600023BB600023FB60002316
:10165C003B6100237B610023BB614FF48063FB6122
:10166C0005233B6200237B620023BB620023FB62E9
:10167C00002387F83030002387F83130002387F8B7
:10168C0032303B4601221946054804F0B7FC0346AC
:10169C00002B01D000F0CAFA00BF6837BD4680BDF0
:1016AC00C40500200068014080B59AB000AF786096
:1016BC0007F1540300221A605A609A60DA601A61CA
:1016CC0007F1240330220021184606F0F2FA7B6859
:1016DC001B68814A934240F0FB8008237B62C02345
:1016EC007B630423FB634FF40033BB6407F12403D7
:1016FC00184604F0E1F80346002B01D000F096FAEE
:10170C0000233B62754B5B6C744A43F080635364FB
:10171C00724B5B6C03F080633B623B6A0023FB61A2
:10172C006E4B1B6B6D4A43F0200313636B4B1B6BAF
:10173C0003F02003FB61FB690023BB61674B1B6B50
:10174C00664A43F001031363644B1B6B03F0010304
:10175C00BB61BB6900237B61604B1B6B5F4A43F031
:10176C00020313635D4B1B6B03F002037B617B690C
:10177C0000233B61594B1B6B584A43F040031363E6
:10178C00564B1B6B03F040033B613B690023FB6032
:10179C00524B1B6B514A43F0040313634F4B1B6BAF
:1017AC0003F00403FB60FB680023BB604B4B1B6B1B
:1017BC004A4A43F008031363484B1B6B03F00803BE
:1017CC00BB60BB684FF480637B650223BB65002361
:1017DC00FB6500233B660E237B6607F15403194619
:1017EC003F4805F04BFE41F658037B650223BB6571
:1017FC000023FB6500233B660E237B6607F1540335
:10180C001946384805F03AFE03237B650223BB6575
:10181C000023FB6500233B6609237B6607F1540319
:10182C001946314805F02AFE4FF470637B6502239C
:10183C00BB650023FB6500233B660E237B6607F12B
:10184C0054031946284805F019FE4FF40C637B65C8
:10185C000223BB650023FB6500233B660E237B66DE
:10186C0007F154031946214805F008FE4FF498631C
:10187C007B650223BB650023FB6500233B660E23BF
:10188C007B6607F154031946194805F0F7FD482308
:10189C007B650223BB650023FB6500233B660E239F
:1018AC007B6607F154031946124805F0E7FD4FF427
:1018BC00A0537B650223BB650023FB6500233B66BD
:1018CC0009237B6607F154031946084805F0D6FD39
:1018DC0000BF6837BD4680BD00680140003802403B
:1018EC0000140240000002400004024000180240B4
:1018FC0000080240000C024080B500AF1B4B1C4A94
:10190C001A601A4B1B4A5A60184B00229A60174BEC
:10191C000022DA60154B4FF480421A61134B0022FF
:10192C005A61124B00229A61104B0022DA610F4B64
:10193C0000221A620D4803F0C9F80346002B01D0AF
:10194C0000F074F90021094805F026F80346002B35
:10195C0001D000F06BF90021044805F059F803465A
:10196C00002B01D000F062F900BF80BD6C06002096
:10197C00005C0040A086010080B58AB000AF7860A2
:10198C0007F1140300221A605A609A60DA601A6137
:10199C007B681B68294A93424BD100233B61284B3F
:1019AC001B6B274A43F004031363254B1B6B03F09B
:1019BC0004033B613B690023FB60214B1B6B204AFA
:1019CC0043F0010313631E4B1B6B03F00103FB601D
:1019DC00FB684FF400737B611223BB610023FB6136
:1019EC0000233B6204237B6207F11403194615485C
:1019FC0005F044FD4FF480737B611223BB6100231F
:101A0C00FB6100233B6204237B6207F1140319463C
:101A1C000D4805F033FD0023BB60094B1B6C084AD5
:101A2C0043F400031364064B1B6C03F40003BB600C
:101A3C00BB6800BF2837BD4680BD00BF005C0040BE
:101A4C0000380240000802400000024080B500AFA0
:101A5C0005F0ECFB00F024F8FEF7FAFEFFF74CFF64
:101A6C00FEF738FE00F0E8F800F0BAF9FEF748FD92
:101A7C00FFF768FD002000F0F3FB012000F0F0FB05
:101A8C0000F0AAF8FEF7B4FB012000F03DFCFEF7D5
:101A9C0089FB4FF47A7005F03BFC00BFF4E70000C3
:101AAC0080B594B000AF07F1200330220021184616
:101ABC0006F0FFF807F10C0300221A605A609A60D6
:101ACC00DA601A610023BB60284B1B6C274A43F079
:101ADC0080531364254B1B6C03F08053BB60BB68B5
:101AEC0000237B60224B1B68214A43F44043136064
:101AFC001F4B1B6803F440437B607B6801233B62F4
:101B0C004FF480337B620223BB634FF48003FB638F
:101B1C0008233B644FF4A8737B640223BB64072344
:101B2C00FB6407F12003184603F02EFA0346002B42
:101B3C0001D000F07BF80F23FB6002233B610023F4
:101B4C007B614FF4C053BB614FF4A053FB6107F1B1
:101B5C000C030521184603F08FFC0346002B01D023
:101B6C0000F064F800BF5037BD4680BD003802401D
:101B7C000070004080B584B000AF7860002000F0A9
:101B8C00C3FB11490020FFF7C9FC10490020FFF7E7
:101B9C00C5FC0023FB600BE00D4AFB6813441B786B
:101BAC00FA680C490020FFF70BFBFB680133FB6064
:101BBC00FB68012BF0DD02220549786802F062F81F
:101BCC0000BF1037BD4680BD5C80000884800008D3
:101BDC00C0060020A880000880B500AF00F066FDAC
:101BEC004FF05041012000F0E3FD012000F044FED5
:101BFC004FF0FF3000F0BCFE4FF0FF31012000F041
:101C0C0089FE0021012000F047FE0749002000F06A
:101C1C00CFFD002000F030FE00F0D2FE4FF0FF3080
:101C2C0000F0A6FE00BF80BD000013D080B400AF52
:101C3C0072B600BF00BFFDE780B500AF114B124A72
:101C4C001A60104B4FF416525A600E4B00229A60D9
:101C5C000C4B0022DA600B4B00221A61094B0C2250
:101C6C005A61084B00229A61064B0022DA61054842
:101C7C0001F0B8FF0346002B01D0FFF7D7FF00BFE0
:101C8C0080BD00BFC40600200050004080B58AB063
:101C9C0000AF786007F1140300221A605A609A6052
:101CAC00DA601A617B681B682C4A934252D100237C
:101CBC003B612B4B1B6C2A4A43F480131364284B57
:101CCC001B6C03F480133B613B690023FB60244BCA
:101CDC001B6B234A43F004031363214B1B6B03F070
:101CEC000403FB60FB680023BB601D4B1B6B1C4A91
:101CFC0043F0080313631A4B1B6B03F00803BB6020
:101D0C00BB684FF480537B610223BB610023FB61F2
:101D1C0003233B6208237B6207F114031946114825
:101D2C0005F0ACFB04237B610223BB610023FB6148
:101D3C0003233B6208237B6207F1140319460A480C
:101D4C0005F09CFB00220021352004F050F83520D2
:101D5C0004F069F800BF2837BD4680BD0050004034
:101D6C000038024000080240000C024080B400AF72
:101D7C00064BD3F88830054A43F47003C2F8883018
:101D8C0000BFBD465DF8047B704700BF00ED00E06E
:101D9C0080B582B000AF00237B60104B5B6C0F4AA8
:101DAC0043F4804353640D4B5B6C03F480437B60C2
:101DBC007B6800233B60094B1B6C084A43F0805343
:101DCC001364064B1B6C03F080533B603B6807208D
:101DDC0004F002F800BF0837BD4680BD0038024051
:101DEC0080B500AF154B164A1A60144B00225A608E
:101DFC00124B00229A60114B0022DA600F4B00222A
:101E0C009A620E4B0022DA620C4B00221A630B4BC7
:101E1C0000225A63094804F03AFE0346002B01D015
:101E2C00FFF704FF0121054805F0D2F80346002B0B
:101E3C0001D0FFF7FBFE00BF80BD00BF0C070020E8
:101E4C0000B0024080B584B000AF78607B681B683E
:101E5C000E4A934215D10023FB600D4B1B6B0C4AB1
:101E6C0043F4000313630A4B1B6B03F40003FB6086
:101E7C00FB68002200215A2003F0B9FF5A2003F01E
:101E8C00D2FF00BF1037BD4680BD00BF00B002407E
:101E9C000038024080B400AF00BFFDE780B400AF53
:101EAC0000BFFDE780B400AF00BFFDE780B400AF1A
:101EBC0000BFFDE780B400AF00BFFDE780B400AF0A
:101ECC0000BFBD465DF8047B704780B400AF00BF17
:101EDC00BD465DF8047B704780B400AF00BFBD46C3
:101EEC005DF8047B704780B500AF05F0F1F900BFD9
:101EFC0080BD000080B500AF024801F0E9FE00BFD4
:101F0C0080BD00BFC406002080B500AF024804F0BD
:101F1C004EFF00BF80BD00BF0C07002080B500AF96
:101F2C0000F0CAFACA2000F05DF9C32000F067F98E
:101F3C00082000F064F9502000F061F9CF2000F087
:101F4C0051F9002000F05BF9C12000F058F9302065
:101F5C0000F055F9ED2000F045F9642000F04FF940
:101F6C00032000F04CF9122000F049F9812000F018
:101F7C0046F9E82000F036F9852000F040F9002001
:101F8C0000F03DF9782000F03AF9CB2000F02AF966
:101F9C00392000F034F92C2000F031F9002000F049
:101FAC002EF9342000F02BF9022000F028F9F7204C
:101FBC0000F018F9202000F022F9EA2000F012F9C4
:101FCC00002000F01CF9002000F019F9B12000F0FD
:101FDC0009F9002000F013F91B2000F010F9B620CD
:101FEC0000F000F90A2000F00AF9A22000F007F92D
:101FFC00C02000F0F7F8102000F001F9C12000F02B
:10200C00F1F8102000F0FBF8C52000F0EBF84520AB
:10201C0000F0F5F8152000F0F2F8C72000F0E2F817
:10202C00902000F0ECF8362000F0DCF8C82000F02E
:10203C00E6F8F22000F0D6F8002000F0E0F8B0202E
:10204C0000F0D0F8C22000F0DAF8B62000F0CAF8A0
:10205C000A2000F0D4F8A72000F0D1F8272000F0D7
:10206C00CEF8042000F0CBF82A2000F0BBF80020BA
:10207C0000F0C5F8002000F0C2F8002000F0BFF816
:10208C00EF2000F0BCF82B2000F0ACF8002000F0A2
:10209C00B6F8002000F0B3F8012000F0B0F83F20B3
:1020AC0000F0ADF8F62000F09DF8012000F0A7F844
:1020BC00002000F0A4F8062000F0A1F82C2000F07D
:1020CC0091F8C82000F0E6FA262000F08BF80120E9
:1020DC0000F095F8E02000F085F80F2000F08FF864
:1020EC00292000F08CF8242000F089F80C2000F056
:1020FC0086F80E2000F083F8092000F080F84E20BE
:10210C0000F07DF8782000F07AF83C2000F077F8A9
:10211C00092000F074F8132000F071F8052000F08D
:10212C006EF8172000F06BF8112000F068F8002012
:10213C0000F065F8E12000F055F8002000F05FF8A1
:10214C00162000F05CF81B2000F059F8042000F079
:10215C0056F8112000F053F8072000F050F8312009
:10216C0000F04DF8332000F04AF8422000F047F818
:10217C00052000F044F80C2000F041F80A2000F093
:10218C003EF8282000F03BF82F2000F038F80F2004
:10219C0000F035F8112000F025F8C82000F07AFA8C
:1021AC00292000F01FF82C2000F01CF800BF80BD87
:1021BC0080B500AF00F080F90321D32000F02CF89B
:1021CC0003469BB2184680BD80B500AF292000F0B5
:1021DC0009F800BF80BD80B500AF282000F002F8E0
:1021EC0000BF80BD80B582B000AF0346FB71FB79A8
:1021FC00184600F0FBF900BF0837BD4680BD80B51E
:10220C0082B000AF0346FB80FB88184600F0CCF987
:10221C0000BF0837BD4680BD80B582B000AF034615
:10222C000A46FB8013467B717A79FB881146184667
:10223C0000F0FEF9034618460837BD4680BD80B451
:10224C0000AFF0231846BD465DF8047B704780B4A0
:10225C0000AF4FF4A0731846BD465DF8047B704781
:10226C0080B58AB000AF0346FB71FB79002B0ED111
:10227C0000233B61214B1B6B204A43F0400313634B
:10228C001E4B1B6B03F040033B613B6910E0FB7979
:10229C00012B0DD10023FB60184B1B6B174A43F02D
:1022AC0040031363154B1B6B03F04003FB60FB688F
:1022BC00FB79134A32F813307B610123BB61012394
:1022CC00FB6102233B62FB790E4A52F8233007F183
:1022DC0014021146184605F0D1F8FB79094A52F858
:1022EC002300FB79064A32F813300022194605F018
:1022FC007DFB00BF2837BD4680BD00BF00380240C3
:10230C00B88C00083C00002080B582B000AF0346BA
:10231C00FB71FB79074A52F82320FB79064931F807
:10232C0013301946104605F07AFB00BF0837BD463E
:10233C0080BD00BF3C000020B88C000880B500AF09
:10234C00194801F0FFFA0346002B2BD1164B174A04
:10235C001A60154B1822DA61134B00229A60124B4B
:10236C0000225A61104B00221A610F4B00229A6214
:10237C000D4B0722DA620C4B0022DA600A4B00226A
:10238C001A62094B4FF400729A61074B00225A6291
:10239C00054B4FF482725A60034800F053F8024820
:1023AC0000F014FE00BF80BD4C070020005001401F
:1023BC0080B584B000AF0346FB710023FB73FB793F
:1023CC009AB2094B1B6807F10801084800F0F2FFAC
:1023DC000346FB73FB7B002B01D000F027F8BB6896
:1023EC0018461037BD4680BD440000204C07002025
:1023FC0080B584B000AF0346FB800023FB73094B10
:10240C001B68B91D0122084800F091FE0346FB73BE
:10241C00FB7B002B01D000F009F800BF1037BD4644
:10242C0080BD00BF440000204C07002080B500AFE9
:10243C00034800F054FEFFF781FF00BF80BD00BFD2
:10244C004C07002080B58AB000AF786000233B6158
:10245C00174B5B6C164A43F480135364144B5B6C40
:10246C0003F480133B613B690023FB60104B1B6B37
:10247C000F4A43F0200313630D4B1B6B03F0200337
:10248C00FB60FB684FF460737B610223BB6102232A
:10249C00FB6101233B6205237B6207F114031946A0
:1024AC00044804F0EBFF00BF2837BD4680BD00BFD9
:1024BC00003802400014024080B588B000AF364BA3
:1024CC001B78002B64D1344B01221A700023BB60A3
:1024DC00324B1B6B314A43F0080313632F4B1B6BBE
:1024EC0003F00803BB60BB684FF40053FB6001238F
:1024FC003B6100237B610223BB6107F10C0319468E
:10250C00274804F0BBFF00237B60244B1B6B234A42
:10251C0043F008031363214B1B6B03F008037B6030
:10252C007B684FF48053FB6001233B6100237B618C
:10253C000223BB6107F10C031946194804F09EFFF6
:10254C0000233B60154B1B6B144A43F004031363CD
:10255C00124B1B6B03F004033B603B680423FB60D2
:10256C0001233B6100237B610223BB6107F10C0358
:10257C0019460C4804F082FF00220421094805F09A
:10258C0035FA01220421074805F030FAFFF7D6FE90
:10259C0000BF2037BD4680BDA40700200038024094
:1025AC00000C02400008024080B582B000AF034628
:1025BC00FB8001224FF400510A4805F017FA002263
:1025CC000421094805F012FAFB881846FFF710FFA2
:1025DC0001220421044805F009FA00BF0837BD4662
:1025EC0080BD00BF000C02400008024080B582B0E4
:1025FC0000AF0346FB7100224FF400510A4805F06E
:10260C00F5F900220421094805F0F0F9FB799BB299
:10261C001846FFF7EDFE01220421044805F0E6F907
:10262C0000BF0837BD4680BD000C024000080240C8
:10263C0080B584B000AF03460A46FB8013467B711D
:10264C000023FB6000220421104805F0CFF9002282
:10265C004FF400510E4805F0C9F9FB881846FFF7F6
:10266C00C7FE7B791846FFF7A3FEF86001224FF4F2
:10267C000051074805F0BAF901220421034805F07E
:10268C00B5F9FB6818461037BD4680BD00080240FE
:10269C00000C024080B582B000AF7860786804F01E
:1026AC0037FE00BF0837BD4680BD000080B500AFC7
:1026BC002D4B2E4A1A602C4B09225A612A4B0122AF
:1026CC009A61294B1D22DA61274B03221A62264B91
:1026DC0040F20D125A62244B40F243129A62224B82
:1026EC0040F21712DA62204B40F247121A631E4B6B
:1026FC00002283F836201C4B002283F834201A4B1E
:10270C00002283F835201A4B08221A60184BC0227D
:10271C001A61174B04229A61154B4FF400325A621E
:10272C00134803F0C9F8104B00225A600E4B0022DC
:10273C009A600D4B0022DA600B4B00221A6100F0FC
:10274C004FF9094803F08AFB0A4B0B4A1A60094BF4
:10275C001B681B68984700F06FFA084800F0EEF809
:10276C000023184680BD00BFA80700200068014068
:10277C0090080020DC080020040000204800002005
:10278C0080B500AF034B1B689B6A984703461846FD
:10279C0080BD00BFDC08002080B500AF034B1B6878
:1027AC00DB6A98470346184680BD00BFDC08002052
:1027BC0080B590B000AF03463960FB800023FB600E
:1027CC00FFF7DEFF03463B6100237B61FFF7E4FF6D
:1027DC000346BB610023FB613B683B63FF233B6209
:1027EC0000237B62002387F83C30002387F83D30C0
:1027FC00002387F83E304FF4C063BB620723FB62B3
:10280C00FFF7BEFF03467B63FFF7C6FF0346BB63C0
:10281C00FA8807F10C031946144803F0EFFBFA8809
:10282C00134913465B0013449B000B4404334FF0D5
:10283C00FF321A60FA880E4913465B0013449B0062
:10284C000B4408330B4A1A60FA88094913465B009B
:10285C0013449B000B444FF07F421A60034803F073
:10286C0089FC00BF4037BD4680BD00BFA8070020D3
:10287C00C40800204800002080B483B000AF78600A
:10288C00044A7B68136000BF0C37BD465DF8047BBF
:10289C00704700BFC008002080B483B000AF7860E0
:1028AC000B46FB70FB78012B12D1194B1B681A4697
:1028BC007B68DB01134484331B68154A126811468C
:1028CC007A68D2010A44843243F00103136011E0A8
:1028DC000F4B1B681A467B68DB01134484331B685F
:1028EC000B4A126811467A68D2010A44843223F0EA
:1028FC0001031360064B1B685A6A054B1B6842F0B8
:10290C0001025A6200BF0C37BD465DF8047B70476C
:10291C00A807002080B582B000AF786039607A6873
:10292C003968054803F0A8FB7968034803F0E8FB15
:10293C0000BF0837BD4680BDA807002080B483B017
:10294C0000AF7860084B1A68084913465B001344C3
:10295C009B000B4408337A681A6000BF0C37BD46E5
:10296C005DF8047B704700BFC0080020C40800203D
:10297C00F0B585B002AF78600F4B1C680E4B1B682E
:10298C000E4A342101FB03F313445C331B681E46CF
:10299C00FFF7F6FE0546FFF7FFFE02467B68019344
:1029AC000023009313462A463146204600F0EEF8E9
:1029BC0000BF0C37BD46F0BDC0080020A8070020A2
:1029CC0080B500AF054B1B689B68002B03D0034BF5
:1029DC001B689B68984700BF80BD00BFDC080020C7
:1029EC0080B58EB000AF00233B62614B5B6C604ADC
:1029FC0043F0806353645E4B5B6C03F080633B621B
:102A0C003B6A0023FB615A4B1B6B594A43F400038E
:102A1C001363574B1B6B03F40003FB61FB6900232F
:102A2C00BB61534B1B6B524A43F001031363504B76
:102A3C001B6B03F00103BB61BB6900237B614C4B37
:102A4C001B6B4B4A43F002031363494B1B6B03F0A4
:102A5C0002037B617B6900233B61454B1B6B444A42
:102A6C0043F004031363424B1B6B03F004033B6101
:102A7C003B690023FB603E4B1B6B3D4A43F0080354
:102A8C0013633B4B1B6B03F00803FB60FB680023D9
:102A9C00BB60374B1B6B364A43F020031363344B3C
:102AAC001B6B03F02003BB60BB6800237B60304BC7
:102ABC001B6B2F4A43F0400313632D4B1B6B03F02E
:102ACC0040037B607B6841F658037B620223BB6248
:102ADC000023FB6202233B630E237B6307F1240379
:102AEC001946244804F0CAFC4FF470637B6207F16A
:102AFC0024031946204804F0C1FC4FF498637B6210
:102B0C0007F1240319461D4804F0B8FC48237B62E6
:102B1C0007F1240319461A4804F0B0FC4FF4806303
:102B2C007B6207F124031946164804F0A7FC4FF406
:102B3C000C637B6207F124031946134804F09EFCD6
:102B4C0003237B6209237B6307F1240319460A489C
:102B5C0004F094FC4FF4A0537B6207F12403194654
:102B6C00094804F08BFC00BF3837BD4680BD00BF60
:102B7C0000380240000002400004024000080240FD
:102B8C00000C0240001402400018024080B586B0D0
:102B9C0002AFF860B9607A603B60164B4FF440327C
:102BAC005A60144B00229A60124ABB69D360114BD5
:102BBC00114A1A600F4803F06AFF0346002B15D127
:102BCC00F9680C4804F004FA0346002B0ED1BA68DD
:102BDC003B6800937B68F969064803F0A1FF034644
:102BEC00002B03D10A21034803F0F8FF00BF103774
:102BFC00BD4680BD5008002000B0024080B582B0B8
:102C0C0000AF78607B68054A18461146A8231A461F
:102C1C0005F07FF878680837BD4680BDA80700200E
:102C2C0080B400AF034B1B681846BD465DF8047BAF
:102C3C00704700BFC008002080B500AF294B2A4A5E
:102C4C001A602A4B02221A60284B07225A60274B23
:102C5C0004229A60254B0722DA60244B02221A6167
:102C6C00224B02225A61214B02229A611D4B0122F6
:102C7C005A601C4B00229A601A4B0422DA60194BE2
:102C8C0010221A61174B40225A61164B4FF4C07236
:102C9C009A61144B0022DA61124B4FF400621A62F3
:102CAC00104B00225A620F4B4FF400529A620021D3
:102CBC000C4800F07FF80D490A4804F04DFB034620
:102CCC00002B03D00A4B01221A7002E0084B0022A1
:102CDC001A7040F26A5000F00DF8054B1B7818463C
:102CEC0080BD00BFE0080020400100A014090020B6
:102CFC005000002080B584B000AF78600023FB60EA
:102D0C002A4B01221A60294B08225A60274B0122B8
:102D1C009A60264B0022DA604FF6FF722349244852
:102D2C0004F04EFB012004F0F3FA204B02221A604F
:102D3C001E4B08225A601D4B01229A601B4B00222D
:102D4C00DA604FF6FF721949194804F039FB174B3A
:102D5C0003221A60154B08225A60144B04229A6005
:102D6C00124B0022DA604FF6FF721049104804F043
:102D7C0027FB4FF40C73FB600C4B04221A600B4BBB
:102D8C0008225A60094B01229A60FB68074AD360FB
:102D9C004FF6FF720549064804F012FB79680448A7
:102DAC0004F043FB00BF1037BD4680BD3009002046
:102DBC00E008002080B590B000AF786039607B6887
:102DCC00002B00F0EC800023BB62774B9B6B764AA8
:102DDC0043F001039363744B9B6B03F00103BB62E1
:102DEC00BB6A00237B62704B1B6B6F4A43F48003FE
:102DFC0013636D4B1B6B03F480037B627B6A0023B4
:102E0C003B62694B1B6B684A43F002031363664BCE
:102E1C001B6B03F002033B623B6A0023FB61624BBA
:102E2C001B6B614A43F0040313635F4B1B6B03F092
:102E3C000403FB61FB690023BB615B4B1B6B5A4AB0
:102E4C0043F008031363584B1B6B03F00803BB617F
:102E5C00BB6900237B61544B1B6B534A43F010033B
:102E6C001363514B1B6B03F010037B617B690023D5
:102E7C003B614D4B1B6B4C4A43F0200313634A4B95
:102E8C001B6B03F020033B613B690023FB60464B4B
:102E9C001B6B454A43F040031363434B1B6B03F01E
:102EAC004003FB60FB6802233B630223BB630023EC
:102EBC007B630C23FB636023FB6207F12C03194635
:102ECC003A4804F0DBFA0123FB6207F12C031946A4
:102EDC00374804F0D3FA4CF20373FB6207F12C036E
:102EEC001946344804F0CAFA4FF68373FB6207F1B3
:102EFC002C031946304804F0C1FA4FF63F03FB622D
:102F0C0007F12C0319462D4804F0B8FA48F2331394
:102F1C00FB6207F12C031946294804F0AFFA294B40
:102F2C0000225A60274B80229A60264B4FF4007285
:102F3C00DA60244B4FF480621A61224B4FF48052BA
:102F4C005A61204B4FF480429A611E4B0022DA6189
:102F5C001C4B4FF400321A621A4B00225A62194B66
:102F6C0003229A62174B0022DA62164B00221A6374
:102F7C00144B154A1A607B68124A1A63114A7B6813
:102F8C009363104803F066FB0E4803F0B5FA002279
:102F9C000F21382002F02BFF382002F044FF00BF35
:102FAC004037BD4680BD00BF0038024000040240DF
:102FBC0000080240000C02400010024000140240C5
:102FCC0000180240400900201064024080B582B015
:102FDC0000AF78607B68002B01D101237BE07B681C
:102FEC005B6A002B08D17B685B68B3F5827F09D0E4
:102FFC007B680022DA6105E07B6800221A617B683D
:10300C0000225A617B6800229A627B6893F85130E7
:10301C00DBB2002B06D17B68002283F85020786845
:10302C00FDF78AFB7B68022283F851207B681B68C2
:10303C001A687B681B6822F040021A607B685B6828
:10304C0003F482727B689B6803F404431A437B6825
:10305C00DB6803F400631A437B681B6903F002030B
:10306C001A437B685B6903F001031A437B689B6915
:10307C0003F400731A437B68DB6903F038031A43CB
:10308C007B681B6A03F0800342EA03017B689B6A3E
:10309C0003F400527B681B680A431A607B689B69C7
:1030AC001B0C03F004017B685B6A03F010027B6865
:1030BC001B680A435A607B681B68DA697B681B686B
:1030CC0022F40062DA617B6800225A657B68012277
:1030DC0083F85120002318460837BD4680BD80B5C3
:1030EC0082B000AF78607B68002B01D101231AE01D
:1030FC007B68022283F851207B681B681A687B6806
:10310C001B6822F040021A607868FDF77DFB7B6833
:10311C0000225A657B68002283F851207B680022CC
:10312C0083F85020002318460837BD4680BD80B573
:10313C0088B000AFF860B9603B601346FB80002399
:10314C00FB77FB6893F85030012B01D102232DE162
:10315C00FB68012283F8502004F0CEF8B861FB889C
:10316C00FB82FB6893F85130DBB2012B02D00223B7
:10317C00FB7716E1BB68002B02D0FB88002B02D139
:10318C000123FB770DE1FB68032283F85120FB68D8
:10319C0000225A65FB68BA681A63FB68FA889A863B
:1031AC00FB68FA88DA86FB6800229A63FB680022C7
:1031BC009A87FB680022DA87FB6800225A64FB6856
:1031CC0000221A64FB689B68B3F5004F0FD1FB68B3
:1031DC001B681A68FB681B6822F040021A60FB68C7
:1031EC001B681A68FB681B6842F480421A60FB6813
:1031FC001B681B6803F04003402B07D0FB681B685F
:10320C001A68FB681B6842F040021A60FB68DB68B6
:10321C00B3F5006F4FD1FB685B68002B02D0FB8AC3
:10322C00012B42D1FB681B6B1A88FB681B68DA60A8
:10323C00FB681B6B9A1CFB681A63FB68DB8E9BB2EA
:10324C00013B9AB2FB68DA862FE0FB681B689B682F
:10325C0003F00203022B12D1FB681B6B1A88FB686C
:10326C001B68DA60FB681B6B9A1CFB681A63FB68B3
:10327C00DB8E9BB2013B9AB2FB68DA8615E004F058
:10328C003BF80246BB69D31A3A689A4203D83B68AA
:10329C00B3F1FF3F02D13B68002B06D10323FB7730
:1032AC00FB68012283F851207BE0FB68DB8E9BB22C
:1032BC00002BCAD150E0FB685B68002B02D0FB8A64
:1032CC00012B44D1FB681A6BFB681B680C3312781A
:1032DC001A70FB681B6B5A1CFB681A63FB68DB8E4D
:1032EC009BB2013B9AB2FB68DA8630E0FB681B6844
:1032FC009B6803F00203022B13D1FB681A6BFB686B
:10330C001B680C3312781A70FB681B6B5A1CFB6819
:10331C001A63FB68DB8E9BB2013B9AB2FB68DA86C0
:10332C0015E003F0E9FF0246BB69D31A3A689A42EA
:10333C0003D83B68B3F1FF3F02D13B68002B06D1A9
:10334C000323FB77FB68012283F8512029E0FB68FB
:10335C00DB8E9BB2002BC9D1BA693968F86800F0D2
:10336C00EDFB0346002B02D0FB6820225A65FB685C
:10337C009B68002B0AD100233B61FB681B68DB6850
:10338C003B61FB681B689B683B613B69FB685B6D41
:10339C00002B02D00123FB7703E0FB68012283F8AA
:1033AC005120FB68002283F85020FB7F1846203701
:1033BC00BD4680BD80B588B002AFF860B9603B6097
:1033CC001346FB800023FB75FB6893F85130DBB28E
:1033DC00012B02D00223FB75FBE0FB685B68B3F5A5
:1033EC00827F12D1FB689B68002B0ED1FB680422F4
:1033FC0083F85120FA883B6800931346BA68B96881
:10340C00F86800F0EFF80346E8E0FB6893F85030FA
:10341C00012B01D10223E1E0FB68012283F850204B
:10342C0003F06AFF3861BB68002B02D0FB88002BCD
:10343C0002D10123FB75CCE0FB68042283F85120F8
:10344C00FB6800225A65FB68BA689A63FB68FA88C5
:10345C009A87FB68FA88DA87FB6800221A63FB6894
:10346C0000229A86FB680022DA86FB6800221A6426
:10347C00FB6800225A64FB689B68B3F5004F0FD1C0
:10348C00FB681B681A68FB681B6822F040021A6014
:10349C00FB681B681A68FB681B6822F480421A6080
:1034AC00FB681B681B6803F04003402B07D0FB68CC
:1034BC001B681A68FB681B6842F040021A60FB68C4
:1034CC00DB68002B6AD132E0FB681B689B6803F059
:1034DC000103012B15D1FB681B6803F10C02FB687F
:1034EC009B6B1278D2B21A70FB689B6B5A1CFB68F0
:1034FC009A63FB68DB8F9BB2013B9AB2FB68DA875D
:10350C0015E003F0F9FE02463B69D31A3A689A4279
:10351C0003D83B68B3F1FF3F02D13B68002B06D1C7
:10352C000323FB75FB68012283F8512051E0FB68F3
:10353C00DB8F9BB2002BC7D135E0FB681B689B6807
:10354C0003F00103012B13D1FB681B68DA68FB68DD
:10355C009B6B92B21A80FB689B6B9A1CFB689A63FC
:10356C00FB68DB8F9BB2013B9AB2FB68DA8715E0F4
:10357C0003F0C2FE02463B69D31A3A689A4203D85A
:10358C003B68B3F1FF3F02D13B68002B06D103230C
:10359C00FB75FB68012283F851201AE0FB68DB8F76
:1035AC009BB2002BC9D13A693968F86800F060FA0F
:1035BC000346002B02D0FB6820225A65FB685B6D2A
:1035CC00002B02D00123FB7503E0FB68012283F87A
:1035DC005120FB68002283F85020FB7D18461837D9
:1035EC00BD4680BD80B58CB000AFF860B9607A6024
:1035FC007B800123FB62002387F82B30FB6893F858
:10360C005030012B01D1022398E1FB68012283F891
:10361C00502003F071FE7862FB6893F8513087F804
:10362C002330FB685B68FB617B887B8397F82330D6
:10363C00012B0FD0FB69B3F5827F07D1FB689B6828
:10364C00002B03D197F82330042B03D0022387F8E7
:10365C002B306DE1BB68002B05D07B68002B02D0B2
:10366C007B88002B03D1012387F82B3060E1FB68AA
:10367C0093F85130DBB2042B03D0FB68052283F89E
:10368C005120FB6800225A65FB687A689A63FB68D4
:10369C007A88DA87FB687A889A87FB68BA681A6333
:1036AC00FB687A88DA86FB687A889A86FB6800223F
:1036BC001A64FB6800225A64FB681B681B6803F0E1
:1036CC004003402B07D0FB681B681A68FB681B681B
:1036DC0042F040021A60FB68DB68B3F5006F7CD1E6
:1036EC00FB685B68002B02D07B8B012B6AD1FB68DB
:1036FC001B6B1A88FB681B68DA60FB681B6B9A1CD7
:10370C00FB681A63FB68DB8E9BB2013B9AB2FB68C9
:10371C00DA8657E0FB681B689B6803F00203022BF8
:10372C001BD1FB68DB8E9BB2002B16D0FB6A012BE6
:10373C0013D1FB681B6B1A88FB681B68DA60FB688B
:10374C001B6B9A1CFB681A63FB68DB8E9BB2013BFC
:10375C009AB2FB68DA860023FB62FB681B689B68E5
:10376C0003F00103012B19D1FB68DB8F9BB2002BFB
:10377C0014D0FB681B68DA68FB689B6B92B21A80EA
:10378C00FB689B6B9A1CFB689A63FB68DB8F9BB294
:10379C00013B9AB2FB68DA870123FB6203F0ACFDB4
:1037AC0002467B6AD31ABA6B9A420BD8BB6BB3F145
:1037BC00FF3F07D0032387F82B30FB68012283F8E7
:1037CC005120B5E0FB68DB8E9BB2002BA2D1FB68CD
:1037DC00DB8F9BB2002B9DD180E0FB685B68002BDC
:1037EC0002D07B8B012B6FD1FB681A6BFB681B68BB
:1037FC000C3312781A70FB681B6B5A1CFB681A632B
:10380C00FB68DB8E9BB2013B9AB2FB68DA865BE00D
:10381C00FB681B689B6803F00203022B1CD1FB683E
:10382C00DB8E9BB2002B17D0FB6A012B14D1FB68EB
:10383C001A6BFB681B680C3312781A70FB681B6BD5
:10384C005A1CFB681A63FB68DB8E9BB2013B9AB275
:10385C00FB68DA860023FB62FB681B689B6803F03D
:10386C000103012B19D1FB68DB8F9BB2002B14D009
:10387C00FB681B68DA68FB689B6BD2B21A70FB683A
:10388C009B6B5A1CFB689A63FB68DB8F9BB2013BFA
:10389C009AB2FB68DA870123FB6203F02DFD024626
:1038AC007B6AD31ABA6B9A4203D8BB6BB3F1FF3F56
:1038BC0002D1BB6B002B07D1032387F82B30FB689D
:1038CC00012283F8512033E0FB68DB8E9BB2002B86
:1038DC009ED1FB68DB8F9BB2002B99D17A6AB96BB6
:1038EC00F86800F02BF90346002B06D0012387F86B
:1038FC002B30FB6820225A651AE0FB689B68002B72
:10390C000AD100237B61FB681B68DB687B61FB6869
:10391C001B689B687B617B69FB685B6D002B03D02C
:10392C00012387F82B3003E0FB68012283F8512038
:10393C00FB68002283F8502097F82B30184630375C
:10394C00BD4680BD80B483B000AF78607B6893F8CF
:10395C005130DBB218460C37BD465DF8047B70471E
:10396C0080B588B000AFF860B9603B601346FB715E
:10397C0003F0C2FC0246BB6A9B1A3A681344FB6113
:10398C0003F0BAFCB861394B1B685B011B0DFA697B
:10399C0002FB03F37B6154E03B68B3F1FF3F50D073
:1039AC0003F0AAFC0246BB69D31AFA699A4202D9FF
:1039BC00FB69002B3DD1FB681B685A68FB681B68D0
:1039CC0022F0E0025A60FB685B68B3F5827F11D18C
:1039DC00FB689B68B3F5004F04D0FB689B68B3F59C
:1039EC00806F07D1FB681B681A68FB681B6822F0A4
:1039FC0040021A60FB689B6AB3F5005F0FD1FB684D
:103A0C001B681A68FB681B6822F400521A60FB687A
:103A1C001B681A68FB681B6842F400521A60FB684A
:103A2C00012283F85120FB68002283F850200323E5
:103A3C0017E07B69002B01D10023FB617B69013B03
:103A4C007B61FB681B689A68BB681340BA689A4232
:103A5C000CBF01230023DBB21A46FB799A429BD19F
:103A6C00002318462037BD4680BD00BF0000002053
:103A7C0080B586B002AFF860B9607A60FB685B68AD
:103A8C00B3F5827F11D1FB689B68B3F5004F04D06E
:103A9C00FB689B68B3F5806F07D1FB681B681A68DD
:103AAC00FB681B6822F040021A60FB685B68B3F588
:103ABC00827F2AD1FB689B68B3F5806F12D07B683C
:103ACC000093BB6800228021F868FFF749FF03468A
:103ADC00002B2DD0FB685B6D43F02002FB685A6510
:103AEC00032326E07B680093BB6800220121F86861
:103AFC00FFF736FF0346002B1AD0FB685B6D43F0D3
:103B0C002002FB685A65032313E07B680093BB68B3
:103B1C0000220121F868FFF723FF0346002B07D092
:103B2C00FB685B6D43F02002FB685A65032300E0E1
:103B3C00002318461037BD4680BD000080B588B004
:103B4C0002AFF860B9607A607B680093BB680122B1
:103B5C000221F868FFF704FF0346002B07D0FB682F
:103B6C005B6D43F02002FB685A65032332E01B4B6C
:103B7C001B681B4AA2FB03235B0D4FF47A7202FBFA
:103B8C0003F37B61FB685B68B3F5827F12D17B68C2
:103B9C000093BB6800228021F868FFF7E1FE034622
:103BAC00002B16D0FB685B6D43F02002FB685A6556
:103BBC0003230FE07B69002B0AD07B69013B7B61FF
:103BCC00FB681B689B6803F08003802BF2D000E03D
:103BDC0000BF002318461837BD4680BD00000020EA
:103BEC00819F5E1680B582B000AF78607B68002B39
:103BFC0001D1012342E07B6893F84130DBB2002B0A
:103C0C0006D17B68002283F840207868FEF73EF8E6
:103C1C007B68242283F841207B681B68DA687B6808
:103C2C001B6822F40052DA60786800F0DBFC7B68D9
:103C3C001B681A697B681B6822F490421A617B68C6
:103C4C001B685A697B681B6822F02A025A617B68E0
:103C5C001B68DA687B681B6842F40052DA607B6888
:103C6C0000225A647B68202283F841207B68202242
:103C7C0083F842207B6800225A63002318460837D9
:103C8C00BD4680BD80B584B000AFF860B960134606
:103C9C00FB80FB6893F84230DBB2202B12D1BB685F
:103CAC00002B02D0FB88002B01D101230BE0FB6819
:103CBC0000221A63FB881A46B968F86800F0BAFA51
:103CCC00034600E0022318461037BD4680BD0000B5
:103CDC0080B5BAB000AF78607B681B681B68C7F80A
:103CEC00E4307B681B68DB68C7F8E0307B681B68D6
:103CFC005B69C7F8DC300023C7F8D8300023C7F85D
:103D0C00D430D7F8E43003F00F03C7F8D830D7F825
:103D1C00D830002B0FD1D7F8E43003F02003002B60
:103D2C0009D0D7F8E03003F02003002B03D07868DB
:103D3C0000F099FB5BE2D7F8D830002B00F0DE8066
:103D4C00D7F8DC3003F00103002B06D1D7F8E030B4
:103D5C0003F49073002B00F0D180D7F8E43003F01B
:103D6C000103002B0BD0D7F8E03003F48073002B49
:103D7C0005D07B685B6C43F001027B685A64D7F812
:103D8C00E43003F00403002B0BD0D7F8DC3003F045
:103D9C000103002B05D07B685B6C43F002027B684F
:103DAC005A64D7F8E43003F00203002B0BD0D7F899
:103DBC00DC3003F00103002B05D07B685B6C43F017
:103DCC0004027B685A64D7F8E43003F00803002B34
:103DDC0011D0D7F8E03003F02003002B05D1D7F831
:103DEC00DC3003F00103002B05D07B685B6C43F0E7
:103DFC0008027B685A647B685B6C002B00F0F281D4
:103E0C00D7F8E43003F02003002B08D0D7F8E030CB
:103E1C0003F02003002B02D0786800F024FB7B68B1
:103E2C001B685B6903F04003402B0CBF012300238C
:103E3C00DBB2C7F8D4307B685B6C03F00803002B53
:103E4C0003D1D7F8D430002B4FD0786800F02CFA7F
:103E5C007B681B685B6903F04003402B41D17B6896
:103E6C001B681433C7F89C30D7F89C3053E8003FDC
:103E7C00C7F89830D7F8983023F04003C7F8D03003
:103E8C007B681B681433D7F8D020C7F8A820C7F874
:103E9C00A430D7F8A410D7F8A82041E80023C7F81D
:103EAC00A030D7F8A030002BD9D17B68DB6B002B6E
:103EBC0013D07B68DB6B7E4A1A657B68DB6B18461C
:103ECC0002F096FC0346002B16D07B68DB6B1B6D57
:103EDC007A68D26B104698470EE0786800F094F937
:103EEC000AE0786800F090F906E0786800F08CF948
:103EFC007B6800225A6475E100BF73E17B681B6B21
:103F0C00012B40F04F81D7F8E43003F01003002B65
:103F1C0000F04881D7F8E03003F01003002B00F0DC
:103F2C0041810023BB607B681B681B68BB607B689E
:103F3C001B685B68BB60BB687B681B685B6903F0D4
:103F4C004003402B40F0B6807B68DB6B1B685B68E2
:103F5C00A7F8BE30B7F8BE30002B00F045817B6867
:103F6C009B8DB7F8BE209A4280F03E817B68B7F8F3
:103F7C00BE20DA857B68DB6BDB69B3F5807F00F0F4
:103F8C0088807B681B680C33C7F88830D7F888307A
:103F9C0053E8003FC7F88430D7F8843023F480739B
:103FAC00C7F8B8307B681B680C33D7F8B820C7F853
:103FBC009420C7F89030D7F89010D7F8942041E8A7
:103FCC000023C7F88C30D7F88C30002BD9D17B6804
:103FDC001B6814337B677B6F53E8003F3B673B6F79
:103FEC0023F00103C7F8B4307B681B681433D7F88F
:103FFC00B420C7F88020FB67F96FD7F8802041E820
:10400C000023BB67BB6F002BE1D17B681B681433AB
:10401C003B663B6E53E8003FFB65FB6D23F04003B2
:10402C00C7F8B0307B681B681433D7F8B020FA6639
:10403C00BB66B96EFA6E41E800237B667B6E002B83
:10404C00E3D17B68202283F842207B6800221A632C
:10405C007B681B680C33FB64FB6C53E8003FBB6450
:10406C00BB6C23F01003C7F8AC307B681B680C33B7
:10407C00D7F8AC20BA657B65796DBA6D41E8002341
:10408C003B653B6D002BE3D17B68DB6B184602F084
:10409C003FFB7B6802225A637B689A8D7B68DB8DC1
:1040AC009BB2D31A9BB21946786800F0B7F89BE024
:1040BC007B4300087B689A8D7B68DB8D9BB2D31A9F
:1040CC00A7F8CE307B68DB8D9BB2002B00F08E8086
:1040DC00B7F8CE30002B00F089807B681B680C335E
:1040EC00BB63BB6B53E8003F7B637B6B23F4907328
:1040FC00C7F8C8307B681B680C33D7F8C8207A64C3
:10410C003B64396C7A6C41E80023FB63FB6B002B3E
:10411C00E3D17B681B6814337B627B6A53E8003FF6
:10412C003B623B6A23F00103C7F8C4307B681B6811
:10413C001433D7F8C4203A63FB62F96A3A6B41E84E
:10414C000023BB62BB6A002BE3D17B68202283F87F
:10415C0042207B6800221A637B681B680C333B612E
:10416C003B6953E8003FFB60FB6823F01003C7F882
:10417C00C0307B681B680C33D7F8C020FA61BB6178
:10418C00B969FA6941E800237B617B69002BE3D1B3
:10419C007B6802225A63B7F8CE301946786800F073
:1041AC003DF823E0D7F8E43003F08003002B09D06E
:1041BC00D7F8E03003F08003002B03D0786800F0D0
:1041CC00EAF814E0D7F8E43003F04003002B0ED0EB
:1041DC00D7F8E03003F04003002B08D0786800F0EB
:1041EC002AF904E000BF02E000BF00E000BFE8379E
:1041FC00BD4680BD80B483B000AF786000BF0C3783
:10420C00BD465DF8047B704780B483B000AF786026
:10421C0000BF0C37BD465DF8047B704780B483B09B
:10422C0000AF78600B467B8000BF0C37BD465DF855
:10423C00047B704780B485B000AFF860B96013465A
:10424C00FB80FB68BA689A62FB68FA889A85FB68FF
:10425C00FA88DA85FB6800225A64FB68222283F80C
:10426C004220FB681B69002B07D0FB681B68DA68CF
:10427C00FB681B6842F48072DA60FB681B685A6941
:10428C00FB681B6842F001025A61FB681B68DA6824
:10429C00FB681B6842F02002DA60002318461437D2
:1042AC00BD465DF8047B704780B495B000AF786074
:1042BC007B681B680C337B637B6B53E8003F3B6371
:1042CC003B6B23F49073FB647B681B680C33FA6CB8
:1042DC003A64FB63F96B3A6C41E80023BB63BB6B3C
:1042EC00002BE5D17B681B6814333B623B6A53E8B7
:1042FC00003FFB61FB6923F00103BB647B681B6817
:10430C001433BA6CFA62BB62B96AFA6A41E80023E8
:10431C007B627B6A002BE5D17B681B6B012B19D16F
:10432C007B681B680C33FB60FB6853E8003FBB6089
:10433C00BB6823F010037B647B681B680C337A6CBE
:10434C00BA617B617969BA6941E800233B613B69D9
:10435C00002BE5D17B68202283F842207B68002269
:10436C001A6300BF5437BD465DF8047B704780B5B7
:10437C0084B000AF78607B689B6BFB60FB680022AD
:10438C00DA85FB680022DA84F868FFF73DFF00BF8E
:10439C001037BD4680BD80B485B000AF78607B68B7
:1043AC0093F84130DBB2212B3ED17B689B68B3F58F
:1043BC00805F14D17B681B69002B10D17B681B6A52
:1043CC00FB60FB681B881A467B681B68C2F30802FB
:1043DC005A607B681B6A9A1C7B681A6208E07B68CF
:1043EC001B6A591C7A6811621A787B681B685A60C0
:1043FC007B68DB8C9BB2013B9BB27A681946D184FB
:10440C00002B0FD17B681B68DA687B681B6822F075
:10441C008002DA607B681B68DA687B681B6842F094
:10442C004002DA60002300E0022318461437BD4630
:10443C005DF8047B704780B582B000AF78607B6814
:10444C001B68DA687B681B6822F04002DA607B68C4
:10445C00202283F841207868FFF7CCFE0023184611
:10446C000837BD4680BD80B58CB000AF78607B68E6
:10447C0093F84230DBB2222B40F0AE807B689B6815
:10448C00B3F5805F17D17B681B69002B13D1002318
:10449C00FB627B689B6ABB627B681B685B689BB238
:1044AC00C3F308039AB2BB6A1A807B689B6A9A1C96
:1044BC007B689A6226E07B689B6AFB620023BB6286
:1044CC007B689B68B3F5805F07D07B689B68002B8B
:1044DC000AD17B681B69002B06D17B681B685B6863
:1044EC00DAB2FB6A1A7008E07B681B685B68DBB2A7
:1044FC0003F07F03DAB2FB6A1A707B689B6A5A1C62
:10450C007B689A627B68DB8D9BB2013B9BB27A68BD
:10451C001946D185002B5DD17B681B68DA687B68F6
:10452C001B6822F02002DA607B681B68DA687B6803
:10453C001B6822F48072DA607B681B685A697B689E
:10454C001B6822F001025A617B68202283F842200A
:10455C007B6800225A637B681B6B012B35D17B680F
:10456C0000221A637B681B680C337B617B6953E800
:10457C00003F3B613B6923F010037B627B681B6847
:10458C000C337A6A3A62FB61F9693A6A41E80023B2
:10459C00BB61BB69002BE5D17B681B681B6803F012
:1045AC001003102B0AD10023FB607B681B681B686F
:1045BC00FB607B681B685B68FB60FB687B689B8DA2
:1045CC0019467868FFF72AFE02E07868FDF7D2FA00
:1045DC00002302E0002300E0022318463037BD46DA
:1045EC0080BD00002DE9B04FC0B000AFC7F8F4009B
:1045FC00D7F8F4301B681B6923F44050D7F8F4301B
:10460C00D968D7F8F4301A6840EA01031361D7F877
:10461C00F4309A68D7F8F4301B691A43D7F8F430A1
:10462C005B691A43D7F8F430DB691343C7F8F830E9
:10463C00D7F8F4301B68DB6823F4164121F00C0129
:10464C00D7F8F4301A68D7F8F8300B43D360D7F8A2
:10465C00F4301B685B6923F44070D7F8F430996927
:10466C00D7F8F4301A6840EA01035361D7F8F430F4
:10467C001A688F4B9A4205D0D7F8F4301A688D4BD4
:10468C009A4204D101F004F9C7F8FC0003E001F0F0
:10469C00EBF8C7F8FC00D7F8F430DB69B3F5004F42
:1046AC0040F00C81D7F8FC300022C7F8E830C7F88E
:1046BC00EC20D7E93A4522462B469118B9655B4167
:1046CC00FB65D7E91623214612EB0108294643EB7B
:1046DC0001094FF000024FF000034FEAC90343EA0F
:1046EC0058734FEAC80290469946234618EB0303C9
:1046FC00C7F8E0302B4649EB0303C7F8E430D7F892
:10470C00F4305B680022C7F8D830C7F8DC20D7E952
:10471C0036120B46DB183B65134642EB03037B65F5
:10472C00D7E91423D7E93801FBF78AFE02460B467A
:10473C00614BA3FB02235B091C01D7F8FC30002260
:10474C00C7F8D030C7F8D420D7E9348942464B4655
:10475C009118B9645B41FB64D7E91223414612EB13
:10476C00010A494643EB010B4FF000024FF00003E6
:10477C004FEACB0343EA5A734FEACA0292469B466E
:10478C0043461AEB0303C7F8C8304B464BEB030305
:10479C00C7F8CC30D7F8F4305B680022C7F8C030CB
:1047AC00C7F8C420D7E930120B46DB183B6413461C
:1047BC0042EB03037B64D7E91023D7E93201FBF703
:1047CC003FFE02460B4611463B4BA3FB01235B0904
:1047DC00642202FB03F3CB1ADB0003F13202364BEB
:1047EC00A3FB02235B095B0003F4F8731C44D7F8AA
:1047FC00FC300022C7F8B830C7F8BC20D7E92E89A6
:10480C0042464B469118B9635B41FB63D7E90E23D3
:10481C0041465118396349464B417B634FF00002C6
:10482C004FF00003D7E90CAB5946CB00514643EA95
:10483C0051735146CA0010461946034642469B180E
:10484C00C7F8B0304B460A4642EB0303C7F8B43006
:10485C00D7F8F4305B680022C7F8A830C7F8AC2052
:10486C00D7E92A120B46DB18BB62134642EB030353
:10487C00FB62D7E90A23D7E92C01FBF7E1FD0246DD
:10488C000B460D4BA3FB02135B09642101FB03F3E5
:10489C00D31ADB003233084AA2FB03235B0903F073
:1048AC000702D7F8F4301B6822449A6006E100BF77
:1048BC0000100140001401401F85EB51D7F8FC306B
:1048CC000022C7F8A030C7F8A420D7E928894246AF
:1048DC004B46911839625B417B62D7E9082341460C
:1048EC005418494643EB01054FF000024FF000030A
:1048FC00EB0043EA5473E20014461D464346E318AA
:10490C00C7F898304B4645EB0303C7F89C30D7F8F3
:10491C00F4305B680022C7F89030C7F894204FF051
:10492C0000024FF00003D7E9244529468B002146AD
:10493C0043EA917321468A00D7E92601FBF780FDF3
:10494C0002460B46604BA3FB02235B091C01D7F804
:10495C00FC300022C7F88830C7F88C20D7E92289B0
:10496C0042464B469118B9615B41FB61D7E906237E
:10497C0041465118396149464B417B614FF0000269
:10498C004FF00003D7E904AB5946CB00514643EA3C
:10499C0051735146CA0010461946034642469B18AD
:1049AC00C7F880304B460A4642EB0303C7F8843005
:1049BC00D7F8F4305B680022BB67FA674FF000024F
:1049CC004FF00003D7E91E8949468B00414643EA64
:1049DC00917341468A00D7E92001FBF731FD02466D
:1049EC000B461146384BA3FB01235B09642202FBE7
:1049FC0003F3CB1A1B013233334AA2FB03235B09AB
:104A0C0003F0F0031C44D7F8FC3000223B677A67B4
:104A1C00D7E91C8942464B469118B9605B41FB6053
:104A2C00D7E9022341465118396049464B417B6016
:104A3C004FF000024FF00003D7E900AB5946CB0012
:104A4C00514643EA51735146CA0010461946034673
:104A5C0042469B18BB664B460A4642EB0303FB6679
:104A6C00D7F8F4305B6800223B667A664FF00002A0
:104A7C004FF00003D7E9188949468B00414643EAB9
:104A8C00917341468A00D7E91A01FBF7D9FC02461B
:104A9C000B460D4BA3FB02135B09642101FB03F3D3
:104AAC00D31A1B013233084AA2FB03235B0903F020
:104ABC000F02D7F8F4301B6822449A6000BF07F548
:104ACC008077BD46BDE8B08F1F85EB5180B584B0B3
:104ADC0000AF78607B68002B01D101232BE17B6850
:104AEC0093F83D30DBB2002B06D17B68002283F8B3
:104AFC003C207868FCF740FF7B68242283F83D203B
:104B0C007B681B681A687B681B6822F001021A60BC
:104B1C007B681B681A687B681B6842F400421A6049
:104B2C007B681B681A687B681B6822F400421A6059
:104B3C0000F09AFEF8607B685B68814A934207D864
:104B4C00FB68804A934294BF01230023DBB206E04A
:104B5C00FB687D4A934294BF01230023DBB2002BF8
:104B6C0001D00123E7E0FB68784AA2FB03239B0CEE
:104B7C00BB607B681B685B6823F03F017B681B682C
:104B8C00BA680A435A607B681B681B6A23F03F01B2
:104B9C007B685B686A4A934202D8BB68013309E0C0
:104BAC00BB684FF4967202FB03F3694AA2FB032322
:104BBC009B0901337A6812680B4313627B681B688C
:104BCC00DB6923F44F4222F0FF027B685B685C498F
:104BDC008B4219D8FB68591E7B685B685B00B1FB84
:104BEC00F3F3591C40F6FC730B40002B0AD0FB6806
:104BFC00591E7B685B685B00B1FBF3F30133C3F3B5
:104C0C000B0351E004234FE07B689B68002B11D110
:104C1C00FB68581E7B6859680B465B000B44B0FB65
:104C2C00F3F30133C3F30B03002B0CBF012300235D
:104C3C00DBB212E0FB68581E7B6859680B469B0080
:104C4C000B4499000B44B0FBF3F30133C3F30B0398
:104C5C00002B0CBF01230023DBB2002B01D001235E
:104C6C0022E07B689B68002B0ED1FB68581E7B688A
:104C7C0059680B465B000B44B0FBF3F30133C3F3F1
:104C8C000B0343F400430FE0FB68581E7B68596824
:104C9C000B469B000B4499000B44B0FBF3F3013320
:104CAC00C3F30B0343F44043796809681343CB61A6
:104CBC007B681B681B6823F0C0017B68DA697B6822
:104CCC001B6A1A437B681B680A431A607B681B6863
:104CDC009B6823F4034323F0FF037A6811697A6815
:104CEC00D26811437A6812680B4393607B681B6827
:104CFC00DB6823F0FF017B685A697B689B691A4368
:104D0C007B681B680A43DA607B681B681A687B68DF
:104D1C001B6842F001021A607B6800221A647B68EF
:104D2C00202283F83D207B6800221A637B680022D6
:104D3C0083F83E20002318461037BD4680BD00BFC7
:104D4C00A08601007F841E00FF083D0083DE1B430C
:104D5C00D34D621080B483B000AF786039603B688B
:104D6C001B68002B23D17B681B6823F4FF4323F0C3
:104D7C007F033A6851683A68926811433A68D2687E
:104D8C0011433A68126911433A68526911433A68FF
:104D9C00926911433A68D26911433A68126A114315
:104DAC003A68526A0A431A437B681A6028E07B68A7
:104DBC001B6823F4F8423B68D9693B681B6A1943AA
:104DCC003B685B6A0B431A437B681A607B685B68C1
:104DDC0023F4FF4323F07F033A6851683A689268E2
:104DEC0011433A68D26811433A68126911433A6820
:104DFC00526911433A6892690A431A437B685A60B4
:104E0C00002318460C37BD465DF8047B704780B410
:104E1C0085B000AFF860B9607A607B68002B28D150
:104E2C00FB689B6803F07042BB681B68591EBB682B
:104E3C005B68013B1B011943BB689B68013B1B0270
:104E4C001943BB68DB68013B1B031943BB681B6937
:104E5C00013B1B041943BB685B69013B1B051943F0
:104E6C00BB689B69013B1B060B431A43FB689A60AA
:104E7C002FE0FB689B6823F4700323F47043BA683B
:104E8C00D268013A1103BA685269013A12050A4311
:104E9C001A43FB689A60FB68DB6803F07042BB68DE
:104EAC001B68591EBB685B68013B1B011943BB683F
:104EBC009B68013B1B021943BB681B69013B1B042C
:104ECC001943BB689B69013B1B060B431A43FB68E8
:104EDC00DA60002318461437BD465DF8047B704732
:104EEC0080B586B000AFF860B9607A6000237B6152
:104EFC00FB681B699B0D9B05BA681168BA68526800
:104F0C001143BA689268013A52011143BA68D268E7
:104F1C0052020A431A43FB681A6102F0EDF97861F8
:104F2C0010E07B68B3F1FF3F0CD07B68002B07D0FF
:104F3C0002F0E2F902467B69D31A7A689A4201D2EE
:104F4C00032306E0FB689B6903F02003202BE8D0C9
:104F5C00002318461837BD4680BD80B483B000AF1F
:104F6C00786039607B685B6923F47F5323F03E03E0
:104F7C003A6852001A437B685A61002318460C3772
:104F8C00BD465DF8047B704780B586B000AF786095
:104F9C007B68002B01D1012367E27B681B6803F05F
:104FAC000103002B75D0884B9B6803F00C03042B7A
:104FBC000CD0854B9B6803F00C03082B12D1824B51
:104FCC005B6803F48003B3F5800F0BD17E4B1B6839
:104FDC0003F40033002B5BD07B685B68002B57D14C
:104FEC00012342E27B685B68B3F5803F06D1764BC8
:104FFC001B68754A43F4803313601DE07B685B6863
:10500C00B3F5A02F0CD1704B1B686F4A43F480236F
:10501C0013606D4B1B686C4A43F4803313600BE0D8
:10502C00694B1B68684A23F480331360664B1B681A
:10503C00654A23F4802313607B685B68002B13D0D4
:10504C0002F05AF9386108E002F056F902463B6961
:10505C00D31A642B01D9032307E25B4B1B6803F4BF
:10506C000033002BF0D014E002F046F9386108E070
:10507C0002F042F902463B69D31A642B01D903238F
:10508C00F3E1514B1B6803F40033002BF0D100E02B
:10509C0000BF7B681B6803F00203002B63D04A4BF4
:1050AC009B6803F00C03002B0BD0474B9B6803F061
:1050BC000C03082B1CD1444B5B6803F48003002BBE
:1050CC0016D1414B1B6803F00203002B05D07B6803
:1050DC00DB68012B01D00123C7E13B4B1B6823F09C
:1050EC00F8027B681B69DB00374913430B603AE01D
:1050FC007B68DB68002B20D0344B01221A6002F055
:10510C00FBF8386108E002F0F7F802463B69D31A65
:10511C00022B01D90323A8E12B4B1B6803F00203DC
:10512C00002BF0D0284B1B6823F0F8027B681B691E
:10513C00DB00254913430B6015E0244B00221A6059
:10514C0002F0DAF8386108E002F0D6F802463B6962
:10515C00D31A022B01D9032387E11B4B1B6803F0E5
:10516C000203002BF0D17B681B6803F00803002BB3
:10517C0036D07B685B69002B16D0154B01221A6068
:10518C0002F0BAF8386108E002F0B6F802463B6962
:10519C00D31A022B01D9032367E10B4B5B6F03F08E
:1051AC000203002BF0D01BE0094B00221A6002F026
:1051BC00A3F838610EE002F09FF802463B69D31A5F
:1051CC00022B07D9032350E100380240000047426C
:1051DC00800E4742884B5B6F03F00203002BEAD131
:1051EC007B681B6803F00403002B00F097800023FE
:1051FC00FB75814B1B6C03F08053002B0FD10023EC
:10520C00BB607D4B1B6C7C4A43F0805313647A4B20
:10521C001B6C03F08053BB60BB680123FB75774BA1
:10522C001B6803F48073002B18D1744B1B68734AF2
:10523C0043F48073136002F05FF8386108E002F009
:10524C005BF802463B69D31A022B01D903230CE10C
:10525C006A4B1B6803F48073002BF0D07B689B684F
:10526C00012B06D1644B1B6F634A43F00103136798
:10527C001CE07B689B68052B0CD15F4B1B6F5E4A57
:10528C0043F0040313675C4B1B6F5B4A43F0010351
:10529C0013670BE0584B1B6F574A23F0010313673E
:1052AC00554B1B6F544A23F0040313677B689B68B0
:1052BC00002B15D002F020F838610AE002F01CF83F
:1052CC0002463B69D31A41F28832934201D9032337
:1052DC00CBE0494B1B6F03F00203002BEED014E024
:1052EC0002F00AF838610AE002F006F802463B695F
:1052FC00D31A41F28832934201D90323B5E03E4BD5
:10530C001B6F03F00203002BEED1FB7D012B05D1AB
:10531C00394B1B6C384A23F0805313647B689B69B0
:10532C00002B00F0A180344B9B6803F00C03082B7E
:10533C005CD07B689B69022B41D1314B00221A60F7
:10534C0001F0DAFF386108E001F0D6FF02463B6954
:10535C00D31A022B01D9032387E0274B1B6803F0D8
:10536C000073002BF0D17B68DA697B681B6A1A43E7
:10537C007B685B6A9B011A437B689B6A5B08013BF9
:10538C001B041A437B68DB6A1B061B4913434B60E7
:10539C001B4B01221A6001F0AFFF386108E001F0ED
:1053AC00ABFF02463B69D31A022B01D903235CE005
:1053BC00114B1B6803F00073002BF0D054E0104B22
:1053CC0000221A6001F098FF386108E001F094FFA8
:1053DC0002463B69D31A022B01D9032345E0064B45
:1053EC001B6803F00073002BF0D13DE07B689B69D8
:1053FC00012B07D1012338E0003802400070004037
:10540C00600047421B4B5B68FB607B689B69012B10
:10541C0028D0FB6803F480027B68DB699A4221D1B7
:10542C00FB6803F03F027B681B6A9A421AD1FA6848
:10543C0047F6C07313407A68526A9201934211D1B5
:10544C00FB6803F440327B689B6A5B08013B1B04DE
:10545C009A4207D1FB6803F070627B68DB6A1B061B
:10546C009A4201D0012300E0002318461837BD46AC
:10547C0080BD00BF0038024080B584B000AF7860BA
:10548C0039607B68002B01D10123CCE0684B1B6891
:10549C0003F00F033A689A420CD9654B3A68D2B2C2
:1054AC001A70634B1B6803F00F033A689A4201D0E1
:1054BC000123B8E07B681B6803F00203002B20D0AB
:1054CC007B681B6803F00403002B05D0594B9B68C9
:1054DC00584A43F4E05393607B681B6803F008035D
:1054EC00002B05D0534B9B68524A43F460439360A6
:1054FC00504B9B6823F0F0027B689B684D4913432B
:10550C008B607B681B6803F00103002B44D07B6825
:10551C005B68012B07D1474B1B6803F40033002B4E
:10552C0019D101237FE07B685B68022B03D07B6879
:10553C005B68032B07D13F4B1B6803F00073002BF8
:10554C0009D101236FE03B4B1B6803F00203002BD6
:10555C0001D1012367E0374B9B6823F003027B6882
:10556C005B68344913438B6001F0C6FEF8600AE0B7
:10557C0001F0C2FE0246FB68D31A41F28832934214
:10558C0001D903234FE02B4B9B6803F00C027B6883
:10559C005B689B009A42EBD1254B1B6803F00F0311
:1055AC003A689A420CD2224B3A68D2B21A70204B0B
:1055BC001B6803F00F033A689A4201D0012332E0D2
:1055CC007B681B6803F00403002B08D0194B9B6805
:1055DC0023F4E0527B68DB68164913438B607B68CD
:1055EC001B6803F00803002B09D0124B9B6823F4B3
:1055FC0060427B681B69DB000E4913438B6000F033
:10560C0021F802460B4B9B681B0903F00F030A4958
:10561C00CB5C22FA03F3094A1360094B1B6818464A
:10562C0001F026FE002318461037BD4680BD00BF92
:10563C00003C024000380240A08C00080000002012
:10564C00540000202DE9B04F94B000AF00237B64D0
:10565C000023FB6400233B640023BB64794B9B68F1
:10566C0003F00C03082B0DD0082B00F2E180002B6B
:10567C0002D0042B03D0DBE0734BBB64DBE0734B39
:10568C00BB64D8E06F4B5B6803F03F037B646D4BEE
:10569C005B6803F48003002B63D06A4B5B689B0947
:1056AC000022BB63FA63BB6BC3F308033B630023A9
:1056BC007B63D7E90C4522462B464FF000004FF098
:1056CC000001590141EAD261500102460B462146C4
:1056DC00511A3961294663EB01037B614FF00002DB
:1056EC004FF00003D7E904AB59468B01514643EA0E
:1056FC00916351468A015146B2EB0108594663EB5E
:10570C0001094FF000024FF000034FEAC90343EACE
:10571C0058734FEAC80290469946234618EB030388
:10572C00BB602B4649EB0303FB604FF000024FF0CC
:10573C000003D7E9024529464B02214643EAD153DF
:10574C0021464A02104619467B6C0022BB62FA6263
:10575C00D7E90A23FAF774FE02460B461346FB649C
:10576C0058E0384B5B689B09002218461146C0F381
:10577C0008033B6200237B62D7E9088942464B460B
:10578C004FF000004FF00001590141EAD261500185
:10579C0002460B464146B2EB010A494663EB010B4C
:1057AC004FF000024FF000034FEA8B1343EA9A6369
:1057BC004FEA8A12B2EB0A0463EB0B054FF00002BE
:1057CC004FF00003EB0043EA5473E20014461D460D
:1057DC004346E3183B604B4645EB03037B604FF0BD
:1057EC0000024FF00003D7E9004529468B02214601
:1057FC0043EA915321468A02104619467B6C0022DB
:10580C00BB61FA61D7E90623FAF71AFE02460B468A
:10581C001346FB640B4B5B681B0C03F00303013357
:10582C005B003B64FA6C3B6CB2FBF3F3BB6402E0D1
:10583C00054BBB6400BFBB6C18465037BD46BDE87A
:10584C00B08F00BF003802400024F40000127A0030
:10585C0080B400AF034B1B681846BD465DF8047B53
:10586C00704700BF0000002080B500AFFFF7F0FFCD
:10587C000246054B9B689B0A03F007030349CB5C6C
:10588C0022FA03F3184680BD00380240B08C0008A1
:10589C0080B500AFFFF7DCFF0246054B9B685B0B46
:1058AC0003F007030349CB5C22FA03F3184680BDCF
:1058BC0000380240B08C000880B586B000AF78602C
:1058CC0000237B6100233B617B681B6803F00103B1
:1058DC00002B0BD17B681B6803F00203002B05D156
:1058EC007B681B6803F04003002B75D0914B0022A2
:1058FC001A6001F001FD786108E001F0FDFC024640
:10590C007B69D31A022B01D9032389E18A4B1B68CB
:10591C0003F00063002BF0D17B681B6803F00103DC
:10592C00002B09D07B685B689A017B689B681B071E
:10593C0081491343C1F884307B681B6803F0020370
:10594C00002B1FD07C4BD3F884301B0F03F00703C4
:10595C003B617B685B689A017B68DB681B061A43BA
:10596C003B691B0774491343C1F88430724BD3F85D
:10597C008C3023F01F027B68DB69013B6E491343BB
:10598C00C1F88C307B681B6803F04003002B0DD0F2
:10599C007B685B689A017B68DB681B061A437B6833
:1059AC009B681B0764491343C1F88430614B012287
:1059BC001A6001F0A1FC786108E001F09DFC024640
:1059CC007B69D31A022B01D9032329E15A4B1B689B
:1059DC0003F00063002BF0D07B681B6803F004031A
:1059EC00002B05D17B681B6803F00803002B79D0D2
:1059FC00524B00221A6001F07FFC786108E001F044
:105A0C007BFC02467B69D31A022B01D9032307E1E5
:105A1C00494B1B6803F00053B3F1005FEFD07B6878
:105A2C001B6803F00403002B20D0434BD3F88830C1
:105A3C001B0F03F007033B617B681B699A017B68B2
:105A4C005B691B061A433B691B073B491343C1F8AF
:105A5C008830394BD3F88C3023F4F8527B681B6AAE
:105A6C00013B1B0234491343C1F88C307B681B6823
:105A7C0003F00803002B1ED02F4BD3F888301B0EDD
:105A8C0003F00F033B617B681B699A013B691B06A2
:105A9C001A437B689B691B0727491343C1F888305D
:105AAC00254BD3F88C3023F440327B685B6A224957
:105ABC001343C1F88C30214B01221A6001F01CFCFD
:105ACC00786108E001F018FC02467B69D31A022BBE
